{
  "contractName": "MyContract",
  "abi": [
    {
      "constant": true,
      "inputs": [
        {
          "name": "",
          "type": "uint256"
        }
      ],
      "name": "historiesIds",
      "outputs": [
        {
          "name": "",
          "type": "uint256"
        }
      ],
      "payable": false,
      "stateMutability": "view",
      "type": "function"
    },
    {
      "constant": true,
      "inputs": [
        {
          "name": "",
          "type": "uint256"
        }
      ],
      "name": "piecesIds",
      "outputs": [
        {
          "name": "",
          "type": "uint256"
        }
      ],
      "payable": false,
      "stateMutability": "view",
      "type": "function"
    },
    {
      "constant": true,
      "inputs": [
        {
          "name": "",
          "type": "uint256"
        }
      ],
      "name": "stagesIds",
      "outputs": [
        {
          "name": "",
          "type": "uint256"
        }
      ],
      "payable": false,
      "stateMutability": "view",
      "type": "function"
    },
    {
      "constant": true,
      "inputs": [
        {
          "name": "",
          "type": "uint256"
        }
      ],
      "name": "piecesInHistory",
      "outputs": [
        {
          "name": "",
          "type": "uint256"
        }
      ],
      "payable": false,
      "stateMutability": "view",
      "type": "function"
    },
    {
      "constant": true,
      "inputs": [
        {
          "name": "",
          "type": "uint256"
        }
      ],
      "name": "veiculosIds",
      "outputs": [
        {
          "name": "",
          "type": "uint256"
        }
      ],
      "payable": false,
      "stateMutability": "view",
      "type": "function"
    },
    {
      "anonymous": false,
      "inputs": [
        {
          "indexed": false,
          "name": "_addr",
          "type": "address"
        },
        {
          "indexed": false,
          "name": "newEmail",
          "type": "string"
        }
      ],
      "name": "userRegisted",
      "type": "event"
    },
    {
      "anonymous": false,
      "inputs": [
        {
          "indexed": false,
          "name": "id",
          "type": "uint256"
        }
      ],
      "name": "pieceRegistered",
      "type": "event"
    },
    {
      "anonymous": false,
      "inputs": [
        {
          "indexed": false,
          "name": "",
          "type": "uint256[]"
        }
      ],
      "name": "StageRegistered",
      "type": "event"
    },
    {
      "anonymous": false,
      "inputs": [
        {
          "indexed": false,
          "name": "_msg",
          "type": "string"
        }
      ],
      "name": "historyRegistered",
      "type": "event"
    },
    {
      "anonymous": false,
      "inputs": [
        {
          "indexed": false,
          "name": "_pieceId",
          "type": "uint256"
        },
        {
          "indexed": false,
          "name": "_msg",
          "type": "string"
        }
      ],
      "name": "pieceUpdated",
      "type": "event"
    },
    {
      "anonymous": false,
      "inputs": [
        {
          "indexed": false,
          "name": "_veiculoId",
          "type": "uint256"
        }
      ],
      "name": "veiculoRegistered",
      "type": "event"
    },
    {
      "constant": false,
      "inputs": [
        {
          "name": "_addr",
          "type": "address"
        },
        {
          "name": "_email",
          "type": "string"
        }
      ],
      "name": "setUser",
      "outputs": [],
      "payable": false,
      "stateMutability": "nonpayable",
      "type": "function"
    },
    {
      "constant": true,
      "inputs": [
        {
          "name": "_addr",
          "type": "address"
        }
      ],
      "name": "getUser",
      "outputs": [
        {
          "name": "",
          "type": "string"
        }
      ],
      "payable": false,
      "stateMutability": "view",
      "type": "function"
    },
    {
      "constant": false,
      "inputs": [
        {
          "components": [
            {
              "name": "id",
              "type": "uint256"
            },
            {
              "name": "placa",
              "type": "string"
            },
            {
              "name": "renavam",
              "type": "string"
            },
            {
              "name": "chassi",
              "type": "string"
            },
            {
              "name": "cor",
              "type": "string"
            },
            {
              "name": "modelo",
              "type": "string"
            },
            {
              "name": "anoFabricacao",
              "type": "uint256"
            },
            {
              "name": "potencia",
              "type": "uint256"
            },
            {
              "name": "pieceOwner",
              "type": "address"
            }
          ],
          "name": "_veiculo",
          "type": "tuple"
        }
      ],
      "name": "addVeiculo",
      "outputs": [],
      "payable": false,
      "stateMutability": "nonpayable",
      "type": "function"
    },
    {
      "constant": false,
      "inputs": [
        {
          "name": "_desc",
          "type": "string"
        },
        {
          "name": "_price",
          "type": "uint256"
        }
      ],
      "name": "addPiece",
      "outputs": [],
      "payable": false,
      "stateMutability": "nonpayable",
      "type": "function"
    },
    {
      "constant": false,
      "inputs": [
        {
          "name": "_pieceId",
          "type": "uint256"
        },
        {
          "name": "_newDesc",
          "type": "string"
        },
        {
          "name": "_newPrice",
          "type": "uint256"
        }
      ],
      "name": "updatePiece",
      "outputs": [],
      "payable": false,
      "stateMutability": "nonpayable",
      "type": "function"
    },
    {
      "constant": true,
      "inputs": [
        {
          "name": "_id",
          "type": "uint256"
        }
      ],
      "name": "pieceInfo",
      "outputs": [
        {
          "name": "",
          "type": "uint256"
        },
        {
          "name": "",
          "type": "string"
        },
        {
          "name": "",
          "type": "address"
        },
        {
          "name": "",
          "type": "uint256"
        }
      ],
      "payable": false,
      "stateMutability": "view",
      "type": "function"
    },
    {
      "constant": true,
      "inputs": [],
      "name": "getPieces",
      "outputs": [
        {
          "name": "",
          "type": "uint256[]"
        },
        {
          "name": "",
          "type": "string[]"
        },
        {
          "name": "",
          "type": "address[]"
        },
        {
          "name": "",
          "type": "uint256[]"
        }
      ],
      "payable": false,
      "stateMutability": "view",
      "type": "function"
    },
    {
      "constant": true,
      "inputs": [
        {
          "name": "_id",
          "type": "uint256"
        }
      ],
      "name": "isPieceInHistory",
      "outputs": [
        {
          "name": "",
          "type": "bool"
        }
      ],
      "payable": false,
      "stateMutability": "view",
      "type": "function"
    },
    {
      "constant": false,
      "inputs": [
        {
          "name": "_pieceId",
          "type": "uint256"
        },
        {
          "name": "_stageDesc",
          "type": "string[]"
        },
        {
          "name": "_dates",
          "type": "string[]"
        }
      ],
      "name": "addNewHistory",
      "outputs": [],
      "payable": false,
      "stateMutability": "nonpayable",
      "type": "function"
    },
    {
      "constant": false,
      "inputs": [
        {
          "name": "_pieceId",
          "type": "uint256"
        },
        {
          "name": "_stageDesc",
          "type": "string[]"
        },
        {
          "name": "_dates",
          "type": "string[]"
        }
      ],
      "name": "addToHistory",
      "outputs": [
        {
          "name": "",
          "type": "bool"
        }
      ],
      "payable": false,
      "stateMutability": "nonpayable",
      "type": "function"
    },
    {
      "constant": true,
      "inputs": [
        {
          "name": "_id",
          "type": "uint256"
        }
      ],
      "name": "HistoryInfo",
      "outputs": [
        {
          "name": "",
          "type": "uint256"
        },
        {
          "name": "",
          "type": "string[]"
        },
        {
          "name": "",
          "type": "string[]"
        },
        {
          "name": "",
          "type": "address"
        }
      ],
      "payable": false,
      "stateMutability": "view",
      "type": "function"
    },
    {
      "constant": true,
      "inputs": [],
      "name": "getHistories",
      "outputs": [
        {
          "name": "",
          "type": "string[]"
        },
        {
          "name": "",
          "type": "string[][]"
        },
        {
          "name": "",
          "type": "string[][]"
        },
        {
          "name": "",
          "type": "address[]"
        }
      ],
      "payable": false,
      "stateMutability": "view",
      "type": "function"
    },
    {
      "constant": false,
      "inputs": [
        {
          "name": "_piecesIds",
          "type": "uint256[]"
        },
        {
          "name": "_stageDesc",
          "type": "string"
        }
      ],
      "name": "addToStage",
      "outputs": [],
      "payable": false,
      "stateMutability": "nonpayable",
      "type": "function"
    },
    {
      "constant": true,
      "inputs": [
        {
          "name": "_id",
          "type": "uint256"
        }
      ],
      "name": "stageInfo",
      "outputs": [
        {
          "name": "",
          "type": "uint256"
        },
        {
          "name": "",
          "type": "uint256[]"
        },
        {
          "name": "",
          "type": "string"
        },
        {
          "name": "",
          "type": "address"
        }
      ],
      "payable": false,
      "stateMutability": "view",
      "type": "function"
    },
    {
      "constant": true,
      "inputs": [],
      "name": "getStages",
      "outputs": [
        {
          "name": "",
          "type": "uint256[]"
        },
        {
          "name": "",
          "type": "uint256[][]"
        },
        {
          "name": "",
          "type": "string[]"
        },
        {
          "name": "",
          "type": "address[]"
        }
      ],
      "payable": false,
      "stateMutability": "view",
      "type": "function"
    }
  ],
  "bytecode": "0x60806040526000600a556000600b556000600c556000600d5534801561002457600080fd5b50613590806100346000396000f3fe608060405260043610610112576000357c0100000000000000000000000000000000000000000000000000000000900463ffffffff1680630ee49fa314610117578063243af193146101405780632a0e7b6214610180578063362342e4146101ae5780633f1a51b8146101eb57806348c18518146102145780636f77926b1461025457806379655bd01461029157806380a3d3d9146102bf57806384d5f424146102e857806391a44a8314610311578063a2c0fb241461034e578063a5fe2cfb1461038b578063cf615f6c146103c8578063d73dde67146103f6578063d9db17de14610433578063e63007fb14610473578063f30b3dac1461049c578063f6881ca6146104c5578063fa5c9fd514610502575b600080fd5b34801561012357600080fd5b5061013e600480360361013991908101906127dd565b61053f565b005b34801561014c57600080fd5b5061016760048036036101629190810190612735565b6106d4565b60405161017794939291906131e4565b60405180910390f35b34801561018c57600080fd5b506101956108cf565b6040516101a59493929190612eb4565b60405180910390f35b3480156101ba57600080fd5b506101d560048036036101d09190810190612735565b610b65565b6040516101e29190613176565b60405180910390f35b3480156101f757600080fd5b50610212600480360361020d91908101906125e0565b610b88565b005b34801561022057600080fd5b5061023b60048036036102369190810190612735565b610c20565b60405161024b9493929190613237565b60405180910390f35b34801561026057600080fd5b5061027b600480360361027691908101906125b7565b610dfa565b6040516102889190613014565b60405180910390f35b34801561029d57600080fd5b506102a6610f00565b6040516102b69493929190612f37565b60405180910390f35b3480156102cb57600080fd5b506102e660048036036102e191908101906126a0565b611116565b005b3480156102f457600080fd5b5061030f600480360361030a919081019061275e565b6112e8565b005b34801561031d57600080fd5b5061033860048036036103339190810190612735565b611510565b6040516103459190613176565b60405180910390f35b34801561035a57600080fd5b5061037560048036036103709190810190612735565b611533565b6040516103829190613176565b60405180910390f35b34801561039757600080fd5b506103b260048036036103ad9190810190612735565b611556565b6040516103bf9190613176565b60405180910390f35b3480156103d457600080fd5b506103dd611579565b6040516103ed9493929190612f98565b60405180910390f35b34801561040257600080fd5b5061041d60048036036104189190810190612735565b611788565b60405161042a9190613176565b60405180910390f35b34801561043f57600080fd5b5061045a60048036036104559190810190612735565b6117ab565b60405161046a9493929190613191565b60405180910390f35b34801561047f57600080fd5b5061049a60048036036104959190810190612634565b611a7e565b005b3480156104a857600080fd5b506104c360048036036104be91908101906126f4565b611c63565b005b3480156104d157600080fd5b506104ec60048036036104e7919081019061275e565b611dfe565b6040516104f99190612ff9565b60405180910390f35b34801561050e57600080fd5b5061052960048036036105249190810190612735565b611f25565b6040516105369190612ff9565b60405180910390f35b6001825110151515610586576040517f08c379a000000000000000000000000000000000000000000000000000000000815260040161057d90613056565b60405180910390fd5b6000811115156105cb576040517f08c379a00000000000000000000000000000000000000000000000000000000081526004016105c290613036565b60405180910390fd5b600080600085815260200190815260200160002090503373ffffffffffffffffffffffffffffffffffffffff168160030160009054906101000a900473ffffffffffffffffffffffffffffffffffffffff1673ffffffffffffffffffffffffffffffffffffffff16141515610675576040517f08c379a000000000000000000000000000000000000000000000000000000000815260040161066c90613156565b60405180910390fd5b8281600101908051906020019061068d929190611f7d565b508181600201819055507f6e8fc547934343a97493eba8dfeabf6d6cd8a58399a360e7a6d13f32974825b1846040516106c69190613283565b60405180910390a150505050565b60006060806000600b548511151515610722576040517f08c379a000000000000000000000000000000000000000000000000000000000815260040161071990613136565b60405180910390fd5b61072a611ffd565b600260008781526020019081526020016000206080604051908101604052908160008201548152602001600182018054806020026020016040519081016040528092919081815260200182805480156107a257602002820191906000526020600020905b81548152602001906001019080831161078e575b50505050508152602001600282018054600181600116156101000203166002900480601f0160208091040260200160405190810160405280929190818152602001828054600181600116156101000203166002900480156108445780601f1061081957610100808354040283529160200191610844565b820191906000526020600020905b81548152906001019060200180831161082757829003601f168201915b505050505081526020016003820160009054906101000a900473ffffffffffffffffffffffffffffffffffffffff1673ffffffffffffffffffffffffffffffffffffffff1673ffffffffffffffffffffffffffffffffffffffff1681525050905080600001518160200151826040015183606001518292508191509450945094509450509193509193565b6060806060806060600580548060200260200160405190810160405280929190818152602001828054801561092357602002820191906000526020600020905b81548152602001906001019080831161090f575b505050505090506060815160405190808252806020026020018201604052801561095c5781602001602082028038833980820191505090505b5090506060825160405190808252806020026020018201604052801561099657816020015b60608152602001906001900390816109815790505b509050606083516040519080825280602002602001820160405280156109d057816020015b60608152602001906001900390816109bb5790505b50905060608451604051908082528060200260200182016040528015610a0a57816020015b60608152602001906001900390816109f55790505b50905060608551604051908082528060200260200182016040528015610a3f5781602001602082028038833980820191505090505b50905060008090505b8651811015610b4c57610a5a816117ab565b8292508191508985815181101515610a6e57fe5b9060200190602002018886815181101515610a8557fe5b9060200190602002018887815181101515610a9c57fe5b9060200190602002018888815181101515610ab357fe5b9060200190602002018473ffffffffffffffffffffffffffffffffffffffff1673ffffffffffffffffffffffffffffffffffffffff168152508490528490528481525050505050610b1a8682815181101515610b0b57fe5b90602001906020020151610c20565b909192508292509050508582815181101515610b3257fe5b906020019060200201819052508080600101915050610a48565b5083838383995099509950995050505050505090919293565b600581815481101515610b7457fe5b906000526020600020016000915090505481565b6000600960008473ffffffffffffffffffffffffffffffffffffffff1673ffffffffffffffffffffffffffffffffffffffff168152602001908152602001600020905081816000019080519060200190610be3929190611f7d565b507fac6ec2f3cde22b84535f0bb70aa5a3d4e365af8847b387e4598b86913b19bab583604051610c139190612e86565b60405180910390a1505050565b60006060600080600a548511151515610c6e576040517f08c379a0000000000000000000000000000000000000000000000000000000008152600401610c65906130f6565b60405180910390fd5b610c7661203c565b6000808781526020019081526020016000206080604051908101604052908160008201548152602001600182018054600181600116156101000203166002900480601f016020809104026020016040519081016040528092919081815260200182805460018160011615610100020316600290048015610d375780601f10610d0c57610100808354040283529160200191610d37565b820191906000526020600020905b815481529060010190602001808311610d1a57829003601f168201915b50505050508152602001600282015481526020016003820160009054906101000a900473ffffffffffffffffffffffffffffffffffffffff1673ffffffffffffffffffffffffffffffffffffffff1673ffffffffffffffffffffffffffffffffffffffff168152505090508060000151816020015160008089815260200190815260200160002060030160009054906101000a900473ffffffffffffffffffffffffffffffffffffffff1683604001518292509450945094509450509193509193565b6060610e0461207b565b600960008473ffffffffffffffffffffffffffffffffffffffff1673ffffffffffffffffffffffffffffffffffffffff16815260200190815260200160002060206040519081016040529081600082018054600181600116156101000203166002900480601f016020809104026020016040519081016040528092919081815260200182805460018160011615610100020316600290048015610ee85780601f10610ebd57610100808354040283529160200191610ee8565b820191906000526020600020905b815481529060010190602001808311610ecb57829003601f168201915b50505050508152505090508060000151915050919050565b60608060608060606003805480602002602001604051908101604052809291908181526020018280548015610f5457602002820191906000526020600020905b815481526020019060010190808311610f40575b5050505050905060608151604051908082528060200260200182016040528015610f8d5781602001602082028038833980820191505090505b50905060608251604051908082528060200260200182016040528015610fc757816020015b6060815260200190600190039081610fb25790505b5090506060835160405190808252806020026020018201604052801561100157816020015b6060815260200190600190039081610fec5790505b509050606084516040519080825280602002602001820160405280156110365781602001602082028038833980820191505090505b50905060008090505b85518110156110fe57611051816106d4565b829250819150888581518110151561106557fe5b906020019060200201888681518110151561107c57fe5b906020019060200201888781518110151561109357fe5b90602001906020020188888151811015156110aa57fe5b9060200190602002018473ffffffffffffffffffffffffffffffffffffffff1673ffffffffffffffffffffffffffffffffffffffff168152508490528490528481525050505050808060010191505061103f565b50848383839850985098509850505050505090919293565b600182511015151561115d576040517f08c379a000000000000000000000000000000000000000000000000000000000815260040161115490613056565b60405180910390fd5b6000811115156111a2576040517f08c379a000000000000000000000000000000000000000000000000000000000815260040161119990613076565b60405180910390fd5b608060405190810160405280600a5481526020018381526020018281526020013373ffffffffffffffffffffffffffffffffffffffff16815250600080600a54815260200190815260200160002060008201518160000155602082015181600101908051906020019061121692919061208f565b506040820151816002015560608201518160030160006101000a81548173ffffffffffffffffffffffffffffffffffffffff021916908373ffffffffffffffffffffffffffffffffffffffff1602179055509050506001600a549080600181540180825580915050906001820390600052602060002001600090919290919091505550600a600081548092919060010191905055507f89cb2295afa6e4ea5e6d19d86325f5c08337b68f9009f9aab493eb702814a5b6600a546040516112dc9190613176565b60405180910390a15050565b6000831015151561132e576040517f08c379a0000000000000000000000000000000000000000000000000000000008152600401611325906130b6565b60405180910390fd5b61133783611f25565b15156114be576080604051908101604052808481526020018381526020018281526020013373ffffffffffffffffffffffffffffffffffffffff1681525060046000600c5481526020019081526020016000206000820151816000015560208201518160010190805190602001906113b092919061210f565b5060408201518160020190805190602001906113cd92919061210f565b5060608201518160030160006101000a81548173ffffffffffffffffffffffffffffffffffffffff021916908373ffffffffffffffffffffffffffffffffffffffff1602179055509050506005600c5490806001815401808255809150509060018203906000526020600020016000909192909190915055506006839080600181540180825580915050906001820390600052602060002001600090919290919091505550600c600081548092919060010191905055507f85df17fa01db593cbf895b0165756515b33fb56e9d3e9af14eb737541265b2366040516114b1906130d6565b60405180910390a161150b565b60006114cb848484611dfe565b90508015611509577f85df17fa01db593cbf895b0165756515b33fb56e9d3e9af14eb737541265b236604051611500906130d6565b60405180910390a15b505b505050565b60018181548110151561151f57fe5b906000526020600020016000915090505481565b60038181548110151561154257fe5b906000526020600020016000915090505481565b60068181548110151561156557fe5b906000526020600020016000915090505481565b606080606080606060018054806020026020016040519081016040528092919081815260200182805480156115cd57602002820191906000526020600020905b8154815260200190600101908083116115b9575b50505050509050606081516040519080825280602002602001820160405280156116065781602001602082028038833980820191505090505b5090506060825160405190808252806020026020018201604052801561164057816020015b606081526020019060019003908161162b5790505b509050606083516040519080825280602002602001820160405280156116755781602001602082028038833980820191505090505b509050606084516040519080825280602002602001820160405280156116aa5781602001602082028038833980820191505090505b50905060008090505b8551811015611770576116c581610c20565b82925088858151811015156116d657fe5b90602001906020020188868151811015156116ed57fe5b906020019060200201888781518110151561170457fe5b906020019060200201888881518110151561171b57fe5b906020019060200201848152508473ffffffffffffffffffffffffffffffffffffffff1673ffffffffffffffffffffffffffffffffffffffff16815250849052848152505050505080806001019150506116b3565b50838383839850985098509850505050505090919293565b60088181548110151561179757fe5b906000526020600020016000915090505481565b60006060806000600c5485111515156117f9576040517f08c379a00000000000000000000000000000000000000000000000000000000081526004016117f090613116565b60405180910390fd5b61180161216f565b60046000878152602001908152602001600020608060405190810160405290816000820154815260200160018201805480602002602001604051908101604052809291908181526020016000905b8282101561190b578382906000526020600020018054600181600116156101000203166002900480601f0160208091040260200160405190810160405280929190818152602001828054600181600116156101000203166002900480156118f75780601f106118cc576101008083540402835291602001916118f7565b820191906000526020600020905b8154815290600101906020018083116118da57829003601f168201915b50505050508152602001906001019061184f565b50505050815260200160028201805480602002602001604051908101604052809291908181526020016000905b828210156119f4578382906000526020600020018054600181600116156101000203166002900480601f0160208091040260200160405190810160405280929190818152602001828054600181600116156101000203166002900480156119e05780601f106119b5576101008083540402835291602001916119e0565b820191906000526020600020905b8154815290600101906020018083116119c357829003601f168201915b505050505081526020019060010190611938565b5050505081526020016003820160009054906101000a900473ffffffffffffffffffffffffffffffffffffffff1673ffffffffffffffffffffffffffffffffffffffff1673ffffffffffffffffffffffffffffffffffffffff1681525050905080600001518160200151826040015183606001518292508191509450945094509450509193509193565b6001815110151515611ac5576040517f08c379a0000000000000000000000000000000000000000000000000000000008152600401611abc90613096565b60405180910390fd5b60008251111515611b0b576040517f08c379a0000000000000000000000000000000000000000000000000000000008152600401611b0290613076565b60405180910390fd5b608060405190810160405280600b5481526020018381526020018281526020013373ffffffffffffffffffffffffffffffffffffffff1681525060026000600b548152602001908152602001600020600082015181600001556020820151816001019080519060200190611b809291906121ae565b506040820151816002019080519060200190611b9d92919061208f565b5060608201518160030160006101000a81548173ffffffffffffffffffffffffffffffffffffffff021916908373ffffffffffffffffffffffffffffffffffffffff1602179055509050506003600b549080600181540180825580915050906001820390600052602060002001600090919290919091505550600b600081548092919060010191905055507f4cc60a5ec8fb5bfb3ec397505a58e8cea4d91a7e74b9e01611588ad65c20bbe282604051611c579190612f15565b60405180910390a15050565b600d548160000181815250508060076000600d548152602001908152602001600020600082015181600001556020820151816001019080519060200190611cab92919061208f565b506040820151816002019080519060200190611cc892919061208f565b506060820151816003019080519060200190611ce592919061208f565b506080820151816004019080519060200190611d0292919061208f565b5060a0820151816005019080519060200190611d1f92919061208f565b5060c0820151816006015560e082015181600701556101008201518160080160006101000a81548173ffffffffffffffffffffffffffffffffffffffff021916908373ffffffffffffffffffffffffffffffffffffffff1602179055509050506008600d549080600181540180825580915050906001820390600052602060002001600090919290919091505550600d600081548092919060010191905055507f931ab3a76dd4c6dcc47b8c61f316716d89ceac393090a0b39688e61e555fca716001600d5403604051611df39190613176565b60405180910390a150565b600080600580549050905060008090505b81811015611f17578560046000838152602001908152602001600020600001541415611f0a57600060046000838152602001908152602001600020905080600101866000815181101515611e5f57fe5b906020019060200201519080600181540180825580915050906001820390600052602060002001600090919290919091509080519060200190611ea3929190611f7d565b505080600201856000815181101515611eb857fe5b906020019060200201519080600181540180825580915050906001820390600052602060002001600090919290919091509080519060200190611efc929190611f7d565b505060019350505050611f1e565b8080600101915050611e0f565b5060009150505b9392505050565b600080600090505b600680549050811015611f725782600682815481101515611f4a57fe5b90600052602060002001541415611f65576001915050611f78565b8080600101915050611f2d565b50600090505b919050565b828054600181600116156101000203166002900490600052602060002090601f016020900481019282601f10611fbe57805160ff1916838001178555611fec565b82800160010185558215611fec579182015b82811115611feb578251825591602001919060010190611fd0565b5b509050611ff991906121fb565b5090565b608060405190810160405280600081526020016060815260200160608152602001600073ffffffffffffffffffffffffffffffffffffffff1681525090565b608060405190810160405280600081526020016060815260200160008152602001600073ffffffffffffffffffffffffffffffffffffffff1681525090565b602060405190810160405280606081525090565b828054600181600116156101000203166002900490600052602060002090601f016020900481019282601f106120d057805160ff19168380011785556120fe565b828001600101855582156120fe579182015b828111156120fd5782518255916020019190600101906120e2565b5b50905061210b91906121fb565b5090565b82805482825590600052602060002090810192821561215e579160200282015b8281111561215d57825182908051906020019061214d92919061208f565b509160200191906001019061212f565b5b50905061216b9190612220565b5090565b608060405190810160405280600081526020016060815260200160608152602001600073ffffffffffffffffffffffffffffffffffffffff1681525090565b8280548282559060005260206000209081019282156121ea579160200282015b828111156121e95782518255916020019190600101906121ce565b5b5090506121f791906121fb565b5090565b61221d91905b80821115612219576000816000905550600101612201565b5090565b90565b61224991905b80821115612245576000818161223c919061224c565b50600101612226565b5090565b90565b50805460018160011615610100020316600290046000825580601f106122725750612291565b601f01602090049060005260206000209081019061229091906121fb565b5b50565b60006122a082356134e7565b905092915050565b600082601f83011215156122bb57600080fd5b81356122ce6122c9826132de565b6132b1565b9150818183526020840193506020810190508360005b8381101561231457813586016122fa88826123a3565b8452602084019350602083019250506001810190506122e4565b5050505092915050565b600082601f830112151561233157600080fd5b813561234461233f82613306565b6132b1565b9150818183526020840193506020810190508385602084028201111561236957600080fd5b60005b83811015612399578161237f88826125a3565b84526020840193506020830192505060018101905061236c565b5050505092915050565b600082601f83011215156123b657600080fd5b81356123c96123c48261332e565b6132b1565b915080825260208301602083018583830111156123e557600080fd5b6123f0838284613503565b50505092915050565b600082601f830112151561240c57600080fd5b813561241f61241a8261335a565b6132b1565b9150808252602083016020830185838301111561243b57600080fd5b612446838284613503565b50505092915050565b6000610120828403121561246257600080fd5b61246d6101206132b1565b9050600061247d848285016125a3565b600083015250602082013567ffffffffffffffff81111561249d57600080fd5b6124a9848285016123a3565b602083015250604082013567ffffffffffffffff8111156124c957600080fd5b6124d5848285016123a3565b604083015250606082013567ffffffffffffffff8111156124f557600080fd5b612501848285016123a3565b606083015250608082013567ffffffffffffffff81111561252157600080fd5b61252d848285016123a3565b60808301525060a082013567ffffffffffffffff81111561254d57600080fd5b612559848285016123a3565b60a08301525060c061256d848285016125a3565b60c08301525060e0612581848285016125a3565b60e08301525061010061259684828501612294565b6101008301525092915050565b60006125af82356134f9565b905092915050565b6000602082840312156125c957600080fd5b60006125d784828501612294565b91505092915050565b600080604083850312156125f357600080fd5b600061260185828601612294565b925050602083013567ffffffffffffffff81111561261e57600080fd5b61262a858286016123f9565b9150509250929050565b6000806040838503121561264757600080fd5b600083013567ffffffffffffffff81111561266157600080fd5b61266d8582860161231e565b925050602083013567ffffffffffffffff81111561268a57600080fd5b612696858286016123f9565b9150509250929050565b600080604083850312156126b357600080fd5b600083013567ffffffffffffffff8111156126cd57600080fd5b6126d9858286016123f9565b92505060206126ea858286016125a3565b9150509250929050565b60006020828403121561270657600080fd5b600082013567ffffffffffffffff81111561272057600080fd5b61272c8482850161244f565b91505092915050565b60006020828403121561274757600080fd5b6000612755848285016125a3565b91505092915050565b60008060006060848603121561277357600080fd5b6000612781868287016125a3565b935050602084013567ffffffffffffffff81111561279e57600080fd5b6127aa868287016122a8565b925050604084013567ffffffffffffffff8111156127c757600080fd5b6127d3868287016122a8565b9150509250925092565b6000806000606084860312156127f257600080fd5b6000612800868287016125a3565b935050602084013567ffffffffffffffff81111561281d57600080fd5b612829868287016123f9565b925050604061283a868287016125a3565b9150509250925092565b61284d8161349f565b82525050565b600061285e826133e1565b80845260208401935061287083613386565b60005b828110156128a257612886868351612844565b61288f82613444565b9150602086019550600181019050612873565b50849250505092915050565b60006128b9826133ec565b808452602084019350836020820285016128d285613393565b60005b8481101561290b5783830388526128ed8383516129f8565b92506128f882613451565b91506020880197506001810190506128d5565b508196508694505050505092915050565b6000612927826133f7565b80845260208401935083602082028501612940856133a0565b60005b8481101561297957838303885261295b838351612ac1565b92506129668261345e565b9150602088019750600181019050612943565b508196508694505050505092915050565b60006129958261340d565b808452602084019350836020820285016129ae856133ba565b60005b848110156129e75783830388526129c9838351612b61565b92506129d482613478565b91506020880197506001810190506129b1565b508196508694505050505092915050565b6000612a0382613402565b80845260208401935083602082028501612a1c856133ad565b60005b84811015612a55578383038852612a37838351612b61565b9250612a428261346b565b9150602088019750600181019050612a1f565b508196508694505050505092915050565b6000612a7182613423565b808452602084019350612a83836133d4565b60005b82811015612ab557612a99868351612e77565b612aa282613492565b9150602086019550600181019050612a86565b50849250505092915050565b6000612acc82613418565b808452602084019350612ade836133c7565b60005b82811015612b1057612af4868351612e77565b612afd82613485565b9150602086019550600181019050612ae1565b50849250505092915050565b612b25816134b1565b82525050565b6000612b3682613439565b808452612b4a816020860160208601613512565b612b5381613545565b602085010191505092915050565b6000612b6c8261342e565b808452612b80816020860160208601613512565b612b8981613545565b602085010191505092915050565b6000602282527f4e6577207072696365206d75737420626520686967686572207468616e207a6560208301527f726f0000000000000000000000000000000000000000000000000000000000006040830152606082019050919050565b6000600c82527f496e76616c6964206e616d6500000000000000000000000000000000000000006020830152604082019050919050565b6000601e82527f5072696365206d75737420626520686967686572207468616e207a65726f00006020830152604082019050919050565b6000601d82527f5065c3a76120617475616c697a61646f20636f6d20737563636573736f0000006020830152604082019050919050565b6000600c82527f4e616d6520696e76616c696400000000000000000000000000000000000000006020830152604082019050919050565b6000600f82527f696e76616c6964207069656365496400000000000000000000000000000000006020830152604082019050919050565b6000600e82527f486973746f7279207361766564210000000000000000000000000000000000006020830152604082019050919050565b6000601482527f506965636520646f6573206e6f742065786973740000000000000000000000006020830152604082019050919050565b6000601682527f486973746f727920646f6573206e6f74206578697374000000000000000000006020830152604082019050919050565b6000601d82527f436f6e7461207265676973747261646120636f6d207375636573736f210000006020830152604082019050919050565b6000601a82527f506965636520737461676520646f6573206e6f742065786973740000000000006020830152604082019050919050565b6000602382527f4f6e6c7920746865206f776e65722063616e207570646174652074686520706960208301527f65636500000000000000000000000000000000000000000000000000000000006040830152606082019050919050565b612e80816134dd565b82525050565b6000604082019050612e9b6000830184612844565b8181036020830152612eac81612dac565b905092915050565b60006080820190508181036000830152612ece818761298a565b90508181036020830152612ee281866128ae565b90508181036040830152612ef681856128ae565b90508181036060830152612f0a8184612853565b905095945050505050565b60006020820190508181036000830152612f2f8184612a66565b905092915050565b60006080820190508181036000830152612f518187612a66565b90508181036020830152612f65818661291c565b90508181036040830152612f79818561298a565b90508181036060830152612f8d8184612853565b905095945050505050565b60006080820190508181036000830152612fb28187612a66565b90508181036020830152612fc6818661298a565b90508181036040830152612fda8185612853565b90508181036060830152612fee8184612a66565b905095945050505050565b600060208201905061300e6000830184612b1c565b92915050565b6000602082019050818103600083015261302e8184612b2b565b905092915050565b6000602082019050818103600083015261304f81612b97565b9050919050565b6000602082019050818103600083015261306f81612bf4565b9050919050565b6000602082019050818103600083015261308f81612c2b565b9050919050565b600060208201905081810360008301526130af81612c99565b9050919050565b600060208201905081810360008301526130cf81612cd0565b9050919050565b600060208201905081810360008301526130ef81612d07565b9050919050565b6000602082019050818103600083015261310f81612d3e565b9050919050565b6000602082019050818103600083015261312f81612d75565b9050919050565b6000602082019050818103600083015261314f81612de3565b9050919050565b6000602082019050818103600083015261316f81612e1a565b9050919050565b600060208201905061318b6000830184612e77565b92915050565b60006080820190506131a66000830187612e77565b81810360208301526131b8818661298a565b905081810360408301526131cc818561298a565b90506131db6060830184612844565b95945050505050565b60006080820190506131f96000830187612e77565b818103602083015261320b8186612a66565b9050818103604083015261321f8185612b2b565b905061322e6060830184612844565b95945050505050565b600060808201905061324c6000830187612e77565b818103602083015261325e8186612b2b565b905061326d6040830185612844565b61327a6060830184612e77565b95945050505050565b60006040820190506132986000830184612e77565b81810360208301526132a981612c62565b905092915050565b6000604051905081810181811067ffffffffffffffff821117156132d457600080fd5b8060405250919050565b600067ffffffffffffffff8211156132f557600080fd5b602082029050602081019050919050565b600067ffffffffffffffff82111561331d57600080fd5b602082029050602081019050919050565b600067ffffffffffffffff82111561334557600080fd5b601f19601f8301169050602081019050919050565b600067ffffffffffffffff82111561337157600080fd5b601f19601f8301169050602081019050919050565b6000602082019050919050565b6000602082019050919050565b6000602082019050919050565b6000602082019050919050565b6000602082019050919050565b6000602082019050919050565b6000602082019050919050565b600081519050919050565b600081519050919050565b600081519050919050565b600081519050919050565b600081519050919050565b600081519050919050565b600081519050919050565b600081519050919050565b600081519050919050565b6000602082019050919050565b6000602082019050919050565b6000602082019050919050565b6000602082019050919050565b6000602082019050919050565b6000602082019050919050565b6000602082019050919050565b60006134aa826134bd565b9050919050565b60008115159050919050565b600073ffffffffffffffffffffffffffffffffffffffff82169050919050565b6000819050919050565b60006134f2826134bd565b9050919050565b6000819050919050565b82818337600083830152505050565b60005b83811015613530578082015181840152602081019050613515565b8381111561353f576000848401525b50505050565b6000601f19601f830116905091905056fea265627a7a723058206780d16305d5de7260cb0fc5a37dbd72496b3faa748e9dad9667f9259e7d69da6c6578706572696d656e74616cf50037",
  "source": "pragma solidity ^0.5.0;\npragma experimental ABIEncoderV2;\n\ncontract MyContract {\n\n    // evento para notificar o cliente que a conta foi atualizada\n    event userRegisted(address _addr, string newEmail);\n    // evento para notificar o cliente que o produto foi registrado\n    event pieceRegistered(uint id);\n    // evento para notificar o cliente de que a Etapa foi registrada\n    event StageRegistered(uint[]);\n    // evento para notificar o cliente de que um histrico foi registrado\n    event historyRegistered(string _msg);\n    // evento para notificar o cliente de que um produto foi atualizado\n    event pieceUpdated(uint _pieceId, string _msg);\n    \n    event veiculoRegistered(uint _veiculoId);\n\n\n    // estrutura para manter dados do usurio\n    struct User {\n        string email;\n    }\n\n    // estrutura para registar o estagio de um produto\n    struct Stage {\n        uint id;\n        uint[] pieces;\n        string desc;\n        address owner;\n    }\n\n    // estrutura para manter dados do produto\n    struct Piece {\n        uint id;\n        string desc;\n        uint price;\n        address owner;\n    }\n\n    // estrutura para manter dados de um histrico\n    struct History {\n        uint pieceId;\n        string[] stageDesc;\n        string[] dates;\n        address pieceOwner;\n    }\n\n    // estrutura para manter os dados de um veculo\n    struct Veiculo\n    {\n        uint id;\n        string placa;\n        string renavam;\n        string chassi;\n        string cor;\n        string modelo;\n        uint anoFabricacao;\n        uint potencia;\n        address pieceOwner;\n    }\n\n    // mapeia um id a um produto\n    mapping (uint => Piece) pieces;\n    uint[] public piecesIds;\n\n    // mapeia um id a uma etapa\n    mapping(uint => Stage) stages;\n    uint[] public stagesIds;\n\n    mapping (uint => History) histories;\n    uint[] public historiesIds;\n    uint[] public piecesInHistory;\n\n    //mapeia um id a um veculo\n    mapping (uint => Veiculo) veiculos;\n    uint[] public veiculosIds;\n\n    // mapeia endereo do usurio a sua estrutura\n    mapping (address => User) users;\n\n    // state variables\n    uint256 private lastId = 0;\n    uint256 private stagesId = 0;\n    uint256 private historyId = 0;\n    \n    uint256 private veiculoId = 0;\n\n    // funo para cadastrar conta do usurio\n    function setUser(address _addr, string memory _email) public {\n        User storage user = users[_addr];\n        user.email = _email;\n\n        // notifica o cliente atravs do evento\n        emit userRegisted(_addr, \"Conta registrada com sucesso!\");\n    }\n\n    // funo para resgatar dados do usurio\n    function getUser(address _addr) public view returns(string memory) {\n        User memory user = users[_addr];\n        return (user.email);\n    }\n\n    // funo para cadastrar um veiculo\n    function addVeiculo(Veiculo memory _veiculo) public {\n        //fazer as validaes de campos obrigatrios \n\n        _veiculo.id = veiculoId;\n\n        veiculos[veiculoId] = _veiculo;\n        veiculosIds.push(veiculoId);\n\n        veiculoId++;\n        emit veiculoRegistered(veiculoId - 1);\n    }\n\n    // funo para cadastrar um produto\n    function addPiece(string memory _desc, uint _price) public {\n        require(bytes(_desc).length >= 1, \"Invalid name\");\n        require(_price > 0, \"Price must be higher than zero\");\n\n        pieces[lastId] = Piece(lastId, _desc, _price, msg.sender);\n        piecesIds.push(lastId);\n        lastId++;\n        emit pieceRegistered(lastId);\n    }\n\n    function updatePiece(uint _pieceId, string memory _newDesc, uint _newPrice) public {\n        require(bytes(_newDesc).length >= 1, \"Invalid name\");\n        require(_newPrice > 0, \"New price must be higher than zero\");\n\n        Piece storage prod = pieces[_pieceId];\n\n        require(prod.owner == msg.sender, \"Only the owner can update the piece\");\n        prod.desc = _newDesc;\n        prod.price = _newPrice;\n\n        emit pieceUpdated(_pieceId, \"Pea atualizado com successo\");\n    }\n\n    // funo para resgatar info de um produto\n    function pieceInfo(uint _id) public view\n        returns(\n            uint,\n            string memory,\n            address,\n            uint\n        ) {\n            require(_id <= lastId, \"Piece does not exist\");\n\n            Piece memory piece = pieces[_id];\n            \n            return (\n                piece.id,\n                piece.desc,\n                pieces[_id].owner,\n                piece.price\n            );\n    }\n\n    // funo que retorna todos os pecas de um usurio\n    function getPieces() public view returns(uint[] memory, string[] memory, address[] memory, uint[] memory) {\n\n        uint[] memory ids = piecesIds;\n\n        uint[] memory idsPieces = new uint[](ids.length);\n        string[] memory names = new string[](ids.length);\n        address[] memory owners = new address[](ids.length);\n        uint[] memory prices = new uint[](ids.length);\n\n        for (uint i = 0; i < ids.length; i++) {\n            (idsPieces[i], names[i], owners[i], prices[i]) = pieceInfo(i);\n        }\n\n        return (idsPieces, names, owners, prices);\n    }\n\n    function isPieceInHistory(uint _id) public view returns (bool) {\n        for (uint i = 0; i < piecesInHistory.length; i++) {\n            if (piecesInHistory[i] == _id)\n                return true;\n        }\n        return false;\n    }\n\n    // funo para adicionar o histrico de um produto\n    function addNewHistory(uint _pieceId, string[] memory _stageDesc, string[] memory _dates) public {\n        require(_pieceId >= 0, \"invalid pieceId\");\n\n        if (!isPieceInHistory(_pieceId)) {\n            histories[historyId] = History(_pieceId, _stageDesc, _dates, msg.sender);\n            historiesIds.push(historyId);\n            piecesInHistory.push(_pieceId);\n            historyId++;\n            emit historyRegistered(\"History saved!\");\n        } else {\n            bool added = addToHistory(_pieceId, _stageDesc, _dates);\n            if (added) {\n                emit historyRegistered(\"History saved!\");\n            }\n        }\n    }\n\n    function addToHistory(uint _pieceId, string[] memory _stageDesc, string[] memory _dates) public returns (bool) {\n        uint size = historiesIds.length;\n        for (uint i = 0; i < size; i++) {\n            if (histories[i].pieceId == _pieceId) {\n                History storage his = histories[i];\n                his.stageDesc.push(_stageDesc[0]);\n                his.dates.push(_dates[0]);\n                return true;\n            }\n        }\n        return false;\n    }\n\n    function HistoryInfo(uint _id) public view returns (uint, string[] memory, string[] memory, address) {\n        require(_id <= historyId, \"History does not exist\");\n\n        History memory his = histories[_id];\n        return (\n            his.pieceId,\n            his.stageDesc,\n            his.dates,\n            his.pieceOwner\n        );\n    }\n\n    function getHistories() public view returns (string[] memory, string[][] memory, string[][] memory, address[] memory) {\n        uint[] memory ids = historiesIds;\n\n        uint[] memory prodsIds = new uint[](ids.length);\n        string[] memory piecesNames = new string[](ids.length);\n        string[][] memory stageDesc = new string[][](ids.length);\n        string[][] memory dates = new string[][](ids.length);\n        address[] memory addrs = new address[](ids.length);\n\n        for (uint i = 0; i < ids.length; i++) {\n            (prodsIds[i], stageDesc[i], dates[i], addrs[i]) = HistoryInfo(i);\n            (, piecesNames[i], ,) = pieceInfo(prodsIds[i]);\n        }\n\n        return (piecesNames, stageDesc, dates, addrs);\n    }\n\n    // funo para adicionar pecas  um estgio\n    function addToStage(uint[] memory _piecesIds, string memory _stageDesc) public {\n        require(bytes(_stageDesc).length >= 1, \"Name invalid\");\n        require(_piecesIds.length > 0, \"Price must be higher than zero\");\n\n        stages[stagesId] = Stage(stagesId, _piecesIds, _stageDesc, msg.sender);\n        stagesIds.push(stagesId);\n        stagesId++;\n\n        emit StageRegistered(_piecesIds);\n    }\n\n    // funo para resgatar info de um estgio\n    function stageInfo(uint _id) public view returns (uint, uint[] memory, string memory, address) {\n        require(_id <= stagesId, \"Piece stage does not exist\");\n\n        Stage memory stage = stages[_id];\n        return (stage.id, stage.pieces, stage.desc, stage.owner);\n    }\n\n    // funo que retorna todos os pecas de um usurio\n    function getStages() public view returns (uint[] memory, uint[][] memory, string[] memory, address[] memory) {\n\n        uint[] memory ids = stagesIds;\n        uint[] memory idsStages = new uint[](ids.length);\n        uint[][] memory prods = new uint[][](ids.length);\n        string[] memory prods_desc = new string[](ids.length);\n        address[] memory owners = new address[](ids.length);\n\n        for(uint i = 0; i < ids.length; i++) {\n            (idsStages[i], prods[i], prods_desc[i], owners[i]) = stageInfo(i);\n        }\n\n        return (ids, prods, prods_desc, owners);\n    }\n\n}",
  "sourcePath": "C:/Users/roger/Projects/iesb-blockchain/dapp/contracts/MyContract.sol",
  "compiler": {
    "name": "solc",
    "version": "0.5.0+commit.1d4f565a.Emscripten.clang"
  },
  "schemaVersion": "3.0.19",
  "updatedAt": "2019-12-15T23:50:25.918Z",
  "networkType": "ethereum",
  "devdoc": {
    "methods": {}
  },
  "userdoc": {
    "methods": {}
  }
}